:020000040800F2
:10000000682E0020AD010008471D0008E518000813
:10001000431D0008D51500086328000800000000F3
:10002000000000000000000000000000BD220008E9
:10003000D915000800000000A72100081D240008B1
:10004000C7010008C7010008C7010008C701000870
:10005000C7010008C7010008C7010008C701000860
:10006000C7010008C7010008C7010008C701000850
:10007000C7010008C7010008C7010008C701000840
:10008000C7010008C7010008C7010008C701000830
:10009000C7010008C7010008C7010008C701000820
:1000A000C7010008C7010008C7010008C701000810
:1000B000C701000881240008C7010008C701000823
:1000C000C7010008C7010008C7010008C7010008F0
:1000D000C7010008F9250008C701000881260008AB
:1000E000C7010008C7010008C701000800F002F8B6
:1000F00000F04DF80AA090E8000C82448344AAF175
:100100000107DA4501D100F042F8AFF2090EBAE872
:100110000F0013F0010F18BFFB1A43F0010318473B
:10012000C8810000E8810000103A24BF78C878C177
:10013000FAD8520724BF30C830C144BF04680C60ED
:10014000704700000023002400250026103A28BF35
:1001500078C1FBD8520728BF30C148BF0B60704739
:10016000662905F0B887642900F08A80782900F0B4
:10017000C380002070471FB500F0EEFC0400002093
:10018000002104F0ABFEE0601FBD10B510BD00F013
:10019000EBFD1146FFF7EFFF04F06AFB00F009FEEC
:1001A00003B4FFF7F2FF03BC02F095FC0948804757
:1001B00009480047FEE7FEE7FEE7FEE7FEE7FEE749
:1001C000FEE7FEE7FEE7FEE704480549054A064B61
:1001D0007047000021240008ED0000086828002076
:1001E000682E0020682A0020682A0020704700003E
:1001F0000FB4044910B503AA029800F073FC10BCB8
:100200005DF814FB180000200FB41CB5074B06AABC
:100210007B4469460090059800F04BFC002069463D
:1002200000F05AFC1CBC5DF814FB0000C50800007F
:1002300070B5044685690068C10601D5302600E026
:100240002026C00707D070BDD4E901213046904771
:10025000206A401C20626D1EF6D570BD70B5044644
:1002600085690078C00707D170BDD4E9012120203D
:100270009047206A401C20626D1EF6D570BD0000BC
:100280002DE9F0410646002410687529314616A56F
:1002900010D0AFF30080002802DA404213A507E037
:1002A00031688A0701D512A502E0490704D511A5D6
:1002B000012401E0AFF3008000210A2206F12407A7
:1002C00009E0B0FBF2FCB0FBF2F302FB1C003030A3
:1002D00078541846491C0028F3D123462A46304654
:1002E000BDE8F04100F078B9000000002D000000EA
:1002F0002B0000002000000070B504460D4621468A
:100300001068AFF300802188090502D50F4A7A44AE
:1003100002E00E4A7A440E32002104F1240305E083
:1003200000F00F060009965D5E54491C0028F7D1C5
:1003300020780023000704D5702D02D009B10223D4
:1003400011322046BDE8704000F046B9067F00003B
:100350002DE9F05F894604464FF0000ADFF824B12A
:10036000FB44C0F820A02046E168884700287DD0E3
:10037000252806D0D4E901219047206A401C20623C
:10038000F1E700255F462046E168884720280646B9
:1003900007DB312E05D2B81910F8200C08B105433F
:1003A000F1E7A80701D525F00405C4F81CA0002733
:1003B000C4F818A02A2E09D0304602F085FB38B3C5
:1003C00004EB8708303EC8F8186019E059F8041BA0
:1003D000204604EB87029161E1688847012F0646B9
:1003E00018D1E069002820DA25F020051DE0D8F8B2
:1003F000180000EB800006EB40003038C8F8180009
:100400002046E1688847064602F05EFB0028EED1F0
:10041000012F0AD02E2E08D12046E16888477F1C84
:100420000646022F45F02005C4DBA069002803DA48
:10043000404245F00105A061E80701D025F0100514
:10044000A6B1A6F14100192802D8203645F400656E
:100450004A463146204625604D46FFF781FE60B191
:10046000012807D0ED1D25F0070000E007E000F1AE
:10047000080978E705F1040975E730467AE7206A4C
:10048000BDE8F09FDC7E0000032A40F2308010F0CF
:10049000030C00F0158011F8013BBCF1020F62441F
:1004A00098BF11F801CB00F8013B38BF11F8013BB0
:1004B000A2F1040298BF00F801CB38BF00F8013B5D
:1004C00011F0030300F02580083AC0F0088051F8CD
:1004D000043B083A51F804CBA0E80810F5E7121DD8
:1004E0005CBF51F8043B40F8043BAFF30080D207F7
:1004F00024BF11F8013B11F801CB48BF11F8012BC3
:1005000024BF00F8013B00F801CB48BF00F8012BE5
:10051000704710B5203AC0F00B80B1E81850203A6F
:10052000A0E81850B1E81850A0E81850BFF4F5AF93
:100530005FEA027C24BFB1E81850A0E8185044BF1D
:1005400018C918C0BDE810405FEA827C24BF51F88A
:10055000043B40F8043B08BF7047D20728BF31F87E
:10056000023B48BF11F8012B28BF20F8023B48BFCF
:1005700000F8012B70474FF000020429C0F01280F0
:1005800010F0030C00F0C282CCF1040CBCF1020F9D
:1005900018BF00F8012BA8BF20F8022BA1EB0C011B
:1005A00000F0B4BA5FEAC17C24BF00F8012B00F868
:1005B000012B48BF00F8012B704770477047704708
:1005C000704710B500F0CCFA006810BD10B50446B5
:1005D00000F0C6FA046010BD2DE9F0470D469946BB
:1005E0009246044600F124080168880604D5E069B3
:1005F00021F01001216000E00120A84201DD471B2D
:1006000000E00027A1697A1902EB0900081AA0612D
:100610002078C00602D42046FFF70AFE002608E034
:10062000D4E901211AF806009047206A401C761C84
:1006300020624E45F4DB2078C0060AD52046FFF73D
:10064000F7FD06E0D4E9012130209047206A401CE4
:100650002062381EA7F10107F4DC07E0D4E901218C
:1006600018F805009047206A401C2062281EA5F15A
:100670000105F3DC2046FFF7F1FD2078000602D5E6
:100680000220BDE8F0870120FBE770472DE9FF4F0E
:100690000C461E464FF0FF378BB0D2E90001DDF863
:1006A00060800A908A46C1F30A5505B93D4600218B
:1006B00008464FF00000BAF1000F00F4400005DAE0
:1006C00000EB80004FF4400101EA50004FEA9059DE
:1006D000B9F1010F00DDB9460A9850EA4A000ED080
:1006E00044F61050A5F2FF3545432F14B8F1000F22
:1006F0001ED07542291E1EDDC9F100021CE0B8F1B2
:10070000010F4FF0000001D0302103E0F24305E07B
:100710002154401CB042FBDB304600220021215412
:100720000B99C1F80880C1E900200FB0BDE8F08F37
:10073000BD1B6D1CDEE74A4600DA694206A800F0E0
:1007400099FA06AB93E8070003AB83E8070050462D
:100750000A9900F077FB8DE80700A0F500501F38DC
:1007600000900398002D0ADD42F21F014A4608441A
:10077000002303A90390684600F0E0FD09E0A0F51E
:1007800000504A461F38002303A90390684600F032
:10079000EAFD8DE807000004000C03D04FF0FF30A5
:1007A000410800E01046B8F1000F03D0002200928B
:1007B00015461EE0751E05D400F0D6F9303262559C
:1007C0006D1EF9D5B3460122084302D000227F1CDA
:1007D00004E02078302801D100227F1E002A0997EA
:1007E00084D01DE0112D07DA00F0BEF930326255D9
:1007F0006D1C50EA0102F5D1084302D00098C8B13F
:100800000EE00021681E05E0235C625C6354225404
:10081000401E491C8142F7DBAB46A81B401E0990D5
:10082000002004F80B000B98099AC0F80880C0E972
:10083000002B7AE711264FF0000857E72DE9F04F1B
:1008400088460446D21D22F0070191B0D1E900018B
:10085000CDE90A0102F024F902460B98C00F01D03D
:100860002D2007E02068810701D52B2002E0202100
:1008700001EAC000032A099001D0072A05DB0346DC
:100880004146204600F0B6F90BE12078800601D5FC
:10089000E06900E00620B8F1650F814606D0B8F1A6
:1008A000660F18D0B8F1670F70D131E00020B9F1B0
:1008B000110F009001DB112301E009F101030AAAE5
:1008C00001A90CA8FFF7E2FEDDE90C70002609F192
:1008D0000105834647E001204B4600904FF000475A
:1008E0000AAA01A90CA8FFF7D1FEDDE90DB00C9909
:1008F0005D46002610B909F101000D18B9EB05009D
:1009000003D4C0F1FF3609F10105A5EB09002BE086
:10091000B9F1010F01DA4FF001090020B9F1110F0F
:100920000090484601DD112300E003460AAA01A910
:100930000CA8FFF7ABFEDDE90C704D4600268346A0
:10094000207800070AD4AB4500DA5D4601A8012DE6
:1009500004DD411911F8011C302907D04F4502DA96
:1009600017F1040F04DA012082460FE06D1EEEE756
:10097000002F02DCED1B3E4403E0781CA84200DDA2
:100980007D1CB81B00F1010A4FF0004720780007DA
:1009900003D4AA4501DB4FF0FF3A0021B7F1004F25
:1009A0000DF143088DF8431024D002202B23002F93
:1009B00001DA7F422D230A21021EA0F1010000DC92
:1009C0005FB197FBF1FC97FBF1F201FB1C7C174632
:1009D0000CF1300C08F801CDEEE7A8F1010003702E
:1009E0002188090501D5452100E06521A0F1010814
:1009F00000F8011C09980FA9A1EB0807FF1D00B121
:100A00000120411901EBEA70A1693844081A401E1F
:100A1000A0612078C00602D42046FFF709FC09989F
:100A200028B1D4E901219047206A401C2062207837
:100A3000C00622D52046FFF7FBFB1EE0002E04DB9C
:100A4000B34502DD01A8805D00E03020D4E901213A
:100A50009047206A401C2062761CAAF101005FEAE0
:100A6000000A0AD100F078F8C0680168405CD4E957
:100A700001219047206A401C2062281EA5F1010533
:100A8000DCDC07E0D4E9012118F8010B9047206A6B
:100A9000401C2062381EA7F10107F3DC2046FFF757
:100AA000DDFB032011B041E601694A1C02610878B0
:100AB000704700B58FB0CDE901310021059105499E
:100AC0007944CDE9031011466846FFF741FC0FB0A9
:100AD00000BD0000E5FFFFFF0A6802F8010B0A6095
:100AE00070470000074B70B50D467B44FFF7E1FFF0
:100AF0000446284600F030F910B14FF0FF3070BDC9
:100B0000204670BD972600004FF0000200B5134646
:100B100094469646203922BFA0E80C50A0E80C501D
:100B2000B1F12001BFF4F7AF090728BFA0E80C50CE
:100B300048BF0CC05DF804EB890028BF40F8042BC7
:100B400008BF704748BF20F8022B11F0804F18BF34
:100B500000F8012B7047000000487047242800204F
:100B6000004870470428002030B5B0F10A024FEA6F
:100B7000900E71F100034EEA817EB0EB0E0061EB46
:100B800091014FEA101E4EEA017E10EB0E0041EB80
:100B900011114FEA102E4EEA016E10EB0E0041EBE0
:100BA00011214FEA104E4EEA014E10EB0E0041EBC0
:100BB0001141401841F100014FEAD00040EA417074
:100BC0004FEAD10110EB80054FEA810444EA9074AA
:100BD00044EB01046D1944EB0404521BA3414FF094
:100BE000000348BF0A3200D530BD401C41F100016E
:100BF00030BD00002DE9F0411F4604460326016880
:100C0000072A01F4006004DB08B116A505E016A56B
:100C100003E008B115A500E015A521F01000206043
:100C2000A069C01EA0610FB1401EA0612046FFF761
:100C3000FFFA4FB1D4E9012138469047206A401CA1
:100C40002062C01C206206E0206AFAE7D4E9012194
:100C500015F8010B9047761EF8D22046FFF7FEFAF2
:100C6000BDE8F0814E414E006E616E00494E460077
:100C7000696E66002DE9F047814616468AB0354810
:100C800078440DC88DE80D0032487844801C03ACD0
:100C90000DC884E80D0041F69B300844372190FBD5
:100CA000F1F290FBF1F5A5F1800501FB12041B3C6C
:100CB00002D56442012000E00020DFF898A08046C1
:100CC0000027FA44AAF1BE0A0EE0E0070AD0324635
:100CD000684607EB470101230AEB810100F043FB63
:100CE0008DE8070064107F1C002CEED1194F7F4463
:100CF000AE3F19E0E80715D007EB04100DF1180A14
:100D000090E80E008AE80E00C068F04201D1981900
:100D100008903246012306A903A800F024FB03AB88
:100D200083E807006D10641C002DE3D14FF0010330
:100D300032466946B8F1000F03A802D000F0FEFA6F
:100D400001E000F010FBC9E90001C9F808200AB071
:100D5000BDE8F0874C760000007B00F08000704713
:100D600000487047042800207546FFF7F9FFAE469B
:100D700005006946534620F00700854618B020B5A7
:100D8000FFF722FABDE820404FF000064FF00007C1
:100D90004FF000084FF0000B21F00701AC46ACE823
:100DA000C009ACE8C009ACE8C009ACE8C0098D4690
:100DB000704710B50446AFF300802046BDE81040F0
:100DC000FFF7EEB94FF0013C50F8042B51F8043B0B
:100DD0009A4221D1A2EB0C03934313EACC1317D10F
:100DE00050F8042B51F8043B9A4215D1A2EB0C03A6
:100DF000934313EACC130BD150F8042B51F8043B66
:100E00009A4209D1A2EB0C03934313EACC13DBD033
:100E10004FF00000704700BFD01A01BAB1FA81F15B
:100E200001F0180122FA01F0CB40C1F12001DBB240
:100E3000C0B2C01A2CFA01F3D11A914311EAC311BE
:100E4000E6D170475FEA400C08BF91F0000F4FEA0F
:100E50008C234FEAC12243EA51514FEA1C5018BF7C
:100E600000F5F0404FEA300018BF41F000415FEA62
:100E70006C5C00F02980BCF1FF3F08BF40F080406F
:100E80007047130C06BF12044FF0100C4FF0000C0B
:100E9000130E04BF12020CF1080C130F04BF120151
:100EA0000CF1040C930F04BF92000CF1020CD30F51
:100EB00004BF52000CF1010C11464FF00002A0F1EA
:100EC0001F00A0EB0C00704711F0004F08BF7047E7
:100ED00031F000413FF4D5AF0B0C06BF09044FF0D1
:100EE000100C4FF0000C0B0E04BF09020CF1080CA3
:100EF0000B0F04BF09010CF1040C8B0F04BF890018
:100F00000CF1020CCB0F04BF49000CF1010CCCF129
:100F10002003A0EB0C0022FA03F302FA0CF241EAE0
:100F2000030100F10100704720F07F4C80EA0300CC
:100F300023F07F47ACEB070303F57C5300F0004040
:100F400003F1FF032DE980494FEA154B09B44FEA3D
:100F5000144325EA0B4E24EA03480FF2042606EB5D
:100F6000132749083E785FEA320203FB0667C7F59C
:100F7000000707FB06F64FEA54374FEAD64606F15C
:100F8000020607FB066CCCF1005C4FEA1C472CEA1A
:100F9000074C07FB06F40CFB06F504EB15464FEA7D
:100FA000961634BF00204FF000404FEAD13706FBC1
:100FB00007FC4FEA1C4C0CFB0BF7D21B03FB0CF796
:100FC00061EB07010CFB0EF7B0EB074072EB174229
:100FD0000CFB08F734BFA2EB0742B2EB074261EB10
:100FE00017414FEA0C444FEA910706FB07FC4FEA12
:100FF0001C4C0CFB0BF7B0EBC74072EB573203FBFA
:101000000CF734BFA2EBC742B2EBC74261EB5731DA
:101010000CFB0EF7B0EBC70072EB57720CFB08F736
:1010200034BFA2EBC702B2EBC70261EB5771039F5B
:101030004FEA816141EA921104EBCC044FEAD137C7
:101040004FEA826206FB07FC42EA90124FEA806098
:101050004FEA1C4C0CFB0BF7D21B03FB0CF761EBAC
:1010600007010CFB0EF7B0EB074072EB17420CFBCD
:1010700008F734BFA2EB0742B2EB074261EB17411E
:101080004FEA8C554FEA910704EB9C2406FB07FCC2
:101090004FEA1C4C0CFB0BF7B0EBC74072EB57321E
:1010A00003FB0CF734BFA2EBC742B2EBC74261EBC4
:1010B00057310CFB0EF7B0EBC70072EB57720CFB0D
:1010C00008F734BFA2EBC702B2EBC70261EB57715E
:1010D00015EB4C254FEA816141EA92114FEA826299
:1010E0004FEAD13742EA901206FB07FC44F10004B4
:1010F0004FEA80604FEA1C4C0CFB0BF7D21B03FB42
:101100000CF761EB07010CFB0EF7B0EB074072EB3D
:1011100017420CFB08F734BFA2EB0742B2EB0742C1
:1011200061EB174115EB1C154FEA813141EA924101
:101130004FEA823242EA90424FEA80304FEA0C7620
:1011400044F1000448EA03434EEA0B484FF0000E16
:10115000B2EB080C71EB030724BF624639464EEB35
:101160000E0E4FF0000B0018524149414BEB0B0B98
:10117000B2EB080C71EB03077BF1000B24BF624656
:1011800039464EEB0E0E4FF0000B0018524149410C
:101190004BEB0B0BB2EB080C71EB03077BF1000B75
:1011A00024BF624639464EEB0E0E51EA020718BFC5
:1011B00046F0010616EB0E7655F1000254F10001DF
:1011C00003D5BDE88901BDE80088BDE88901BDE817
:1011D0000048B619524141EB0101A3F101037047E8
:1011E00080807F7E7D7C7B7A797877767675747364
:1011F000727171706F6E6E6D6C6C6B6A6A69686823
:10120000676666656464636362616160605F5F5EB8
:101210005E5D5D5C5C5B5B5A5A595958585757562E
:101220005655555554545353525252515150505093
:101230004F4F4F4E4E4D4D4D4C4C4C4B4B4B4A4AE5
:101240004A49494948484847474747464646454529
:101250004544444444434343434242424241414162
:10126000002B9C4630D477002BD01CB54FEA3707B3
:1012700003B44FF010004FF01001BAF1000F06D088
:10128000BCF1000FDCBF40F0080040F008014FF057
:1012900000000FBCBDE810400BF1010BBBF1010FCA
:1012A00008BF5FEA170722BF12F1010211F1010125
:1012B0004FF0004143F1000300F0004043EA00001A
:1012C0007047F9D35708D0E746EA064613F1400FB6
:1012D0004FEA16461FDD13F1200FDFBF16430A4603
:1012E000002120335B42BED0C3F1200746EA064608
:1012F00002FA07F74FEA164646EA0706C3F1200747
:1013000022FA03F201FA07F721FA03F14FF0000382
:1013100042EA0702A7E746EA020646EA06464FEA1D
:10132000164646EA0106BCBF46EA0646360C4FF0B2
:1013300000034FF000024FF0000194E72DE9804CCC
:101340009A46934670B491E8380007C831EA400CD9
:1013500048BF34EA430C03D5FFF7E6FDFFF780FFF3
:10136000F0BCBDE8008C2DE9804C9A46934670B4E1
:1013700091E8380007C810F0804F08BF13F0804F85
:1013800003D100F005F8FFF76BFFF0BCBDE8008C5F
:1013900020F07F4780EA030023F07F4C07EB0C032B
:1013A000A3F57C5300F00040A3F1FE0392F0000F80
:1013B00000F0B38095F0000F00F077802DE901492F
:1013C0004FEA11404FEA144621EA004800FB06FCB0
:1013D00024EA064708FB06F607FB08F800FB07F7B8
:1013E00018EB06484CEB164C4FEA124B18EB07482B
:1013F0004FEA15464CEB174022EA0B4E0BFB06FC5E
:1014000025EA06470EFB06F607FB0EFE0BFB07F769
:101410001EEB064E4CEB164C4FF000061EEB074E33
:101420004CEB174B18EB0B0840F1000018EB0E0BC0
:1014300058EB000840F100008F1A4FF000013CBF4C
:10144000C943661B14BFB5EB040C00213CBFC94364
:10145000F61B4FEA17444EEA8E0E27EA04454FEA80
:101460001C4704FB07622CEA074C05FB07F70CFB43
:1014700005F604FB0CFC16EB074642EB174216EB95
:101480000C4642EB1C421BEB060658EB02024141A4
:1014900046EA9E0601D5BDE80189B619524141EBE5
:1014A0000101A3F10103BDE801894FEA14454FEAA8
:1014B000114724EA054621EA074C05FB07F406FB21
:1014C00007F70CFB06F105FB0CFC11EB074144EBA5
:1014D00017444FEA124711EB0C4144EB1C4422EA3B
:1014E000074C05FB07F206FB07F70CFB06F605FBAE
:1014F0000CFC16EB074642EB174216EB0C4642EB90
:101500001C456A1854F1000148BF7047B619524192
:1015100041EB0101A3F10103704795F0000F37D0B3
:101520004FEA11424FEA144721EA024624EA074CE7
:1015300002FB07F106FB07F70CFB06F402FB0CFCB1
:1015400014EB074441EB17414FEA154714EB0C44E9
:1015500041EB1C4125EA074C02FB07F506FB07F7A8
:101560000CFB06F602FB0CFC16EB074645EB174599
:1015700016EB0C4645EB1C42121951F1000148BF15
:101580007047B619524141EB0101A3F101037047C5
:101590004FEA14454FEA114724EA054621EA074C71
:1015A00005FB07F106FB07F70CFB06F24FF0000600
:1015B00005FB0CFC12EB074241EB174112EB0C420E
:1015C00051EB1C4148BF7047921841EB0101A3F158
:1015D0000103704700BFFEE770470FB47CB50446B7
:1015E0000A99089804F0AEFB05460999079804F09B
:1015F000A9FB0646294604F0F9FC0090DDE9080144
:1016000004F0A0FB05460A99079804F09BFB0646E8
:10161000294604F0CBF90190DDE90001C4E900019D
:101620007CBC5DF814FB00002DE9F04F91B004463E
:1016300000264FF480700E9040F2FF100D900025B0
:101640001CE0B5420FDA04EBC60103C9CDE906017F
:1016500004EBC60004EBC50206CA06C004EBC500D5
:10166000DDE9061206C00E9F04E0F61B384607EBC4
:10167000D0714F10B742F8DD3E446D1C0D98854285
:10168000DFDB4FF400700F9001200C9002E00C980B
:10169000401C0C900F9800EBD07149100F9101295C
:1016A000F5D188467BE0A8F10100022101FA00F99A
:1016B000484609EBD0714FEA610A4FF07E500A901C
:1016C00000200B90504603F0C8FE02460B46CDE9C1
:1016D00000013648364903F0FDFCCDE9020101F076
:1016E000C3F8CDE9040103F00FFC0890504603F065
:1016F000B4FE02460B46CDE900012C482C4903F00C
:10170000E9FCCDE9020101F0C3F881F00041CDE927
:10171000040103F0F9FB099000263AE035462CE07D
:1017200005EB0A0B0B9804EBCB0C00900A9B06A868
:10173000DCE90012FFF751FF54F83500069904F078
:1017400055FC44F83B0004EBC5020799506804F0CF
:101750004DFC04EBCB01486054F83500069904F0C9
:1017600025F944F8350004EBC5020799506804F0E8
:101770001DF904EBC50148604D44B5F5007FCFDB92
:10178000099800900AA8089BDDE90A12FFF725FFD7
:10179000761CAAF10100B042C0DA08F101080C98E9
:1017A000804580DD11B0BDE8F08F0000182D445455
:1017B000FB2109402DE9F0410246002500260020CA
:1017C00000230024002791F803C00CF00F0591F8C6
:1017D00003C00CF0100CBCF1000F03D091F802C054
:1017E0004CEA050591F800C0BCF1000F31D0146837
:1017F00000202BE04FF0010C0CFA00F3B1F800C010
:101800000CEA03069E4220D183004FF00F0C0CFA25
:1018100003F7BC4305FA03FC4CEA040491F803C047
:10182000BCF1280F06D14FF0010C0CFA00FCC2F8F5
:1018300014C00AE091F803C0BCF1480F05D14FF085
:10184000010C0CFA00FCC2F810C0401C0828D1D3CF
:101850001460B1F800C0BCF1FF0F34DD5468002003
:101860002EE000F1080C4FF0010808FA0CF3B1F873
:1018700000C00CEA03069E4221D183004FF00F0CFA
:101880000CFA03F7BC4305FA03FC4CEA040491F894
:1018900003C0BCF1280F05D100F1080C08FA0CF8C0
:1018A000C2F8148091F803C0BCF1480F07D100F1D1
:1018B000080C4FF0010808FA0CF8C2F81080401C20
:1018C0000828CED35460BDE8F0810246002093681A
:1018D0000B400BB1012000E00020704741617047D0
:1018E0000161704700BFFEE710B5044694B1802146
:1018F0001448FFF7F5FF00F069F840211148FFF7A1
:10190000EFFF00F063F840210E48FFF7E7FF00F01B
:101910005DF815E080210B48FFF7E0FF00F056F876
:1019200040210848FFF7DCFF00F050F8402105484F
:10193000FFF7D4FF00F04AF880210248FFF7D0FFFC
:1019400010BD0000000C014010B501210A48FFF74E
:10195000C7FF02210848FFF7C3FF00F08DF90121FE
:101960000548FFF7BBFF00F087F902210248FFF7A7
:10197000B5FF00F081F910BD000C014010B5012148
:101980000648FFF7ABFF02210448FFF7A9FF00F06C
:1019900073F901210148FFF7A3FF10BD000C0140BE
:1019A00010B501210848FFF79BFF00F065F90221FF
:1019B0000548FFF795FF00F05FF902210248FFF7A5
:1019C0008DFF00F059F910BD000C0140062000BF4A
:1019D000011EA0F10102D0B2FAD1704708B5012171
:1019E000082000F0F1FB14208DF803004020ADF832
:1019F000000003208DF8020069460548FFF7DAFE73
:101A00008020ADF8000069460148FFF7D3FE08BD0D
:101A1000000C01402DE9F0410446884616461F4659
:101A200000F0D4F8E0B200F089F81A4800780128F4
:101A300002D10020BDE8F08108F0FF0000F07EF840
:101A400014480078012801D10020F3E700F0BEF827
:101A5000611CC8B200F072F80E480078012801D16C
:101A60000020E7E700250FE000F046F806F8010B3C
:101A7000781EA84203D10120FFF736FF02E00020C4
:101A8000FFF732FF681C85B2BD42EDDB00F0B8F80D
:101A90000120CFE74800002070B504460D4600F055
:101AA00095F8E0B200F04AF812480078012801D118
:101AB000002070BD284600F041F80E48007801284B
:101AC00001D10020F5E700F081F8611CC8B200F0F8
:101AD00035F808480078012801D10020E9E700F036
:101AE0000BF806460120FFF7FFFE00F089F83046AC
:101AF000DFE700004800002070B50024002516E054
:101B00006006040E40210C48FFF7EAFEFFF75EFF77
:101B100080210948FFF7D9FE08B1601CC4B24021FA
:101B20000548FFF7DBFEFFF751FF681CC5B2082D23
:101B3000E6DB204670BD0000000C014070B5044695
:101B400000251DE004F0800020B180211D48FFF732
:101B5000C7FE03E080211B48FFF7C0FEFFF736FFFA
:101B600040211848FFF7BCFEFFF730FF4021154821
:101B7000FFF7B4FEFFF72AFF6006040E681CC5B22B
:101B8000082DDFDB80210F48FFF7AAFEFFF71EFFBD
:101B900040210C48FFF7A4FEFFF718FF80210948F9
:101BA000FFF793FE18B101200749087002E00020FA
:101BB0000549087040210348FFF790FEFFF706FF34
:101BC00070BD0000000C01404800002010B540210D
:101BD0000A48FFF785FE80210848FFF781FEFFF7DE
:101BE000F5FE80210548FFF779FEFFF7EFFE402163
:101BF0000248FFF773FEFFF7E9FE10BD000C01403D
:101C000010B580210748FFF769FE40210548FFF71E
:101C100067FEFFF7DBFE80210248FFF761FEFFF75A
:101C2000D5FE10BD000C014070B504460D461646A9
:101C3000FFF7CCFFE0B2FFF781FF0E4800780128E4
:101C400001D1002070BD2846FFF778FF09480078D1
:101C5000012801D10020F5E73046FFF76FFF054866
:101C60000078012801D10020ECE7FFF7C9FF01202F
:101C7000E8E7000048000020032000BF011EA0F19B
:101C80000102D0B2FAD1704710B5C0220221AE20B5
:101C9000FFF7CAFF00220321AE20FFF7C5FF002295
:101CA0000421AE20FFF7C0FF00220521AE20FFF780
:101CB000BBFF00220621AE20FFF7B6FF0F2208214E
:101CC000AE20FFF7B1FF03220921AE20FFF7ACFFE2
:101CD00027220A21AE20FFF7A7FF32220C21AE20D7
:101CE000FFF7A2FF32220D21AE20FFF79DFF7F22DA
:101CF0001021AE20FFF798FF10BD000008B50121AC
:101D0000082000F061FA04208DF803008001ADF88E
:101D1000000069460448FFF74DFD4FF4807102480A
:101D2000FFF7DEFD08BD0000000C014010B54022A9
:101D30000921AE20FFF778FF08B1012010BD002077
:101D4000FCE700BFFEE7704770B5002100230F22BB
:101D5000C47804B3154C246804F4E064C4F5E0646A
:101D6000210AC1F10403CA40447804FA03F18478DB
:101D70001440214309010E4C0678A155047804F063
:101D80001F050124AC4005786D11AD0005F1E0257B
:101D9000C5F8004109E0047804F01F050124AC40B7
:101DA000044D0678761145F8264070BD0CED00E034
:101DB00000E400E080E100E002490143024A1160D2
:101DC000704700000000FA050CED00E070B500243B
:101DD0000CE0002506E00020074901EBC50108558D
:101DE000681CC5B2802DF6DB601CC4B2082CF0DB89
:101DF00000F0C6F870BD000034010020F0B51446B4
:101E00000B46CF1701EB5777C7F3C702CF1701EB8C
:101E10005777FF10A1EBC707FEB20123B340DDB235
:101E20004CB1134B03EBC0039B5C2B43104F07EBF0
:101E3000C007BB541AE00E4B03EBC0039B5CDB43B3
:101E40000B4F07EBC007BB54094B03EBC0039B5C74
:101E50002B43074F07EBC007BB54054B03EBC003F5
:101E60009B5CDB43024F07EBC007BB54F0BD000097
:101E70003401002008B50121082000F0A5F9032055
:101E8000ADF8000014208DF8030003208DF8020047
:101E900069463A48FFF78EFC03213848FFF720FDDA
:101EA000C82001F015F90021AE2000F060F90021F2
:101EB000084600F05CF90021102000F058F90021DC
:101EC000402000F054F90021812000F050F9002159
:101ED000CF2000F04CF90021A12000F048F90021AA
:101EE000C82000F044F90021A62000F040F90021AC
:101EF000A82000F03CF900213F2000F038F9002133
:101F0000D32000F034F90021084600F030F9002118
:101F1000D52000F02CF90021802000F028F90021C4
:101F2000D92000F024F90021F12000F020F900214F
:101F3000DA2000F01CF90021122000F018F900212D
:101F4000DB2000F014F90021302000F010F900210E
:101F5000202000F00CF90021022000F008F90021F7
:101F60008D2000F004F90021142000F000F9FFF7A3
:101F70002DFF0021AF2000F0FAF808BD000C014051
:101F800070B500242BE004F1B001C8B2002100F0CC
:101F9000EEF80021084600F0EAF80021102000F0D9
:101FA000E6F8FFF7D1FC782000F08AF9FFF7F8FC9B
:101FB000402000F085F9FFF7F3FC002509E009490E
:101FC00001EBC501085D00F07BF9FFF7E9FC681C37
:101FD000C5B2802DF3DBFFF7D1FC601CC4B2082C26
:101FE000D1DB70BD340100202DE9FE4F0746884645
:101FF00092461C460197CDF80080082C02D14FF084
:1020000006091FE02046E31704EB5373DB1021465B
:102010004FEAE47C04EB5C7C4FEAEC0CA4EBCC0CC8
:10202000BCF1000F02D04FF0010C01E04FF0000CAA
:102030006344224604EBD27C4FEA6C0C03FB0CF3A6
:1020400003F0FF09AAF12000C6B200255EE0082CCB
:1020500007D106EB46002F4901EB400010F805B010
:102060001DE00C2C07D106EB46002B4901EB80004C
:1020700010F805B013E0102C05D1284800EB06102D
:1020800010F805B00BE0182C07D106EBC600244968
:1020900001EB800010F805B001E0BDE8FE8F0020E4
:1020A00002901CE00BF0010028B1414638460C9A22
:1020B000FFF7A4FE09E00C9808B9012000E0002019
:1020C000024641463846FFF799FE4FEA6B0B08F18E
:1020D000010000F0FF080298401CC0B20290029874
:1020E0000828DFDB781CC7B2082C0BD004EBD471B6
:1020F0004A100199791A8A4204D1019F0098083048
:10210000C0B20090DDF80080681CC5B24D459EDB72
:1021100000BFC2E7DA6000080263000876670008C3
:10212000666D00082DE9F84106460F4614461D4627
:10213000DDF81C8013E0CDF8008022782B4639466C
:102140003046FFF751FF082D02D1B01DC6B205E0A1
:10215000284605EBD07106EB6101CEB2641C2078F5
:10216000202802DB20787E28E5DDBDE8F88170B507
:1021700005460C46FFF7E8FB782000F0A1F8FFF7D2
:102180000FFC1CB1402000F09BF802E0002000F0A2
:1021900097F8FFF705FC284600F092F8FFF700FCDF
:1021A000FFF7ECFB70BD704729B1064AD2690243C4
:1021B000044BDA6104E0034AD2698243014BDA61DD
:1021C000704700000010024029B1064A926902439C
:1021D000044B9A6104E0034A92698243014B9A617D
:1021E000704700000010024030B50021002200249A
:1021F00000232D4D6D6805F00C0121B1042905D097
:10220000082923D105E0294D056022E0274D05600E
:102210001FE0254D6D6805F47012234D6D6805F4BF
:102220008034022505EB92421CB9214D55430560CF
:102230000BE01D4D6D6805F400351DB11C4D554377
:10224000056002E0194D5543056002E0174D056039
:1022500000BF00BF144D6D6805F0F0010909154D70
:102260006B5C0568DD4045600F4D6D6805F4E0610D
:10227000090A104D6B5C4568DD4085600A4D6D684C
:1022800005F46051C90A0B4D6B5C4568DD40C560C3
:10229000054D6D6805F44041890B074D6B5CC568C1
:1022A000B5FBF3F5056130BD0010024000127A0065
:1022B00000093D001E0000202E0000207047000095
:1022C00070B5044600251BE004F0800020B1012118
:1022D0000D48FFF705FB03E001210B48FFF7FEFA6D
:1022E000FFF7CAFC02210848FFF7FAFAFFF7C4FC1F
:1022F00002210548FFF7F2FA6006040E681CC5B219
:10230000082DE1DB70BD0000000C014010B500F0AD
:1023100001F810BD0CB50020019000903348006812
:1023200040F480303149086000BF3048006800F454
:10233000003000900198401C0190009818B9019855
:10234000B0F5A06FF1D12948006800F4003010B159
:102350000120009001E0002000900098012843D166
:102360002348006840F010002149086008460068D2
:1023700020F0030008600846006840F00200086092
:102380001A4840681949486008464068486008464D
:10239000406840F4806048600846406820F47C1043
:1023A00048600846406840F4E81048600846006805
:1023B00040F08070086000BF0C48006800F00070BA
:1023C0000028F9D00948406820F003000749486018
:1023D0000846406840F00200486000BF034840687B
:1023E00000F00C000828F9D10CBD000000100240DC
:1023F00000200240042808D14FF0E021096941F093
:1024000004014FF0E022116107E04FF0E02109697B
:1024100021F004014FF0E022116170477047000085
:1024200010B51348006840F00100114908600846E3
:102430004068104908400E494860084600680E4947
:1024400008400B4908600846006820F480200860B6
:102450000846406820F4FE0048604FF41F00886082
:10246000FFF754FF4FF000600449086010BD000002
:10247000001002400000FFF8FFFFF6FE08ED00E04C
:1024800010B50121054800F04AF828B101210348A0
:1024900000F036F801F086FF10BD00000004004097
:1024A0007FB505460C4601210220FFF77DFEADF801
:1024B0000850ADF804400020ADF80A00ADF8060061
:1024C00001A90E4800F046F8012211460B4800F021
:1024D00037F81D208DF8000000208DF80100032042
:1024E0008DF8020001208DF803006846FFF72CFCF0
:1024F0000121024800F007F87FBD00000004004001
:10250000CA430282704721B1028842F00102028070
:1025100004E002884FF6FE731A400280704730B51F
:102520000246002000230024158A05EA010395894C
:1025300005EA010413B10CB1012000E0002030BD18
:102540001AB183890B43838102E083898B438381A2
:1025500070470000002202881D4B98420ED01D4B90
:1025600098420BD0B0F1804F08D01B4B984205D059
:102570001A4B984202D01A4B984204D14FF68F73EF
:102580001A404B881A43174B984207D0164B984273
:1025900004D04FF6FF431A40CB881A4302808B8841
:1025A00083850B8803850A4B98420BD0094B9842D0
:1025B00008D00E4B984205D00D4B984202D00D4BDF
:1025C000984201D10B7A0386012383827047000071
:1025D000002C01400034014000040040000800408D
:1025E000000C00400010004000140040004001407A
:1025F000004401400048014010B540F225511D48FB
:1026000000F06BF810B31B4800F022F9C4B21A486E
:10261000008800F40040C8B91748008800F48040E2
:1026200060B10A2C03D000201349088020E0124832
:10263000008840F400401049088019E00D2C06D1B4
:102640000D48008840F480400B49088010E00A489B
:102650000088C0F30D0009490C5407480088401C4D
:102660000549088008460088C72801DD0020088049
:1026700010BD0000003801401C0000206C0000204C
:1026800008B540F22551074800F027F840B1054849
:1026900000F0DEF8C0B200900121684601F0E0FDD4
:1026A00008BD00000048004021B1828942F4005278
:1026B000828104E082894DF6FF731A40828170475F
:1026C00002460020B1F5007F00D100BF13880B4007
:1026D0000BB1012000E00020704770B502460024D5
:1026E00000230025002040F66A16B14200D100BF49
:1026F000C1F3421501F01F03012606FA03F3012D71
:1027000002D19689334006E0022D02D1168A334069
:1027100001E0968A33400C12012606FA04F416886A
:10272000344013B10CB1012000E0002070BDF0B5C1
:102730000346002400260025002040F66A17B9420F
:1027400000D100BF1846C1F3421401F01F06012753
:1027500007FA06F5012C01D10C3004E0022C01D15E
:10276000103000E014301AB107682F43076002E010
:102770000768AF430760F0BD2DE9F04786B0054616
:102780000E460024A24600BFA1460027B08900B132
:1027900000BF2F462C8A4CF6FF700440F08804439B
:1027A0002C82AC894EF6F3100440B088318908437E
:1027B000718908430443AC81AC8A4FF6FF40044062
:1027C000B0890443AC8201A8FFF70EFD1F48874281
:1027D00002D1DDF810A001E0DDF80CA0A88900F41A
:1027E000004040B10AEBCA0000EB0A103168490012
:1027F000B0FBF1F807E00AEBCA0000EB0A10316801
:102800008900B0FBF1F86420B8FBF0F00401200966
:10281000642101FB1089A88900F4004040B13220F6
:1028200000EBC900B0FBF1F000F00700044308E042
:10283000322000EB09106421B0FBF1F000F00F0032
:1028400004432C8106B0BDE8F08700000038014049
:1028500001468888C0F308007047C1F308028280EF
:10286000704700BFFEE700002DE9F04104460D4629
:10287000054A064B2046294602F078FB064600F042
:1028800007F8BDE8F0810000182D4454FB21F93F02
:102890002DE9F04F93B004460D464FF0000B002297
:1028A00013462046294602F0EFFD03D24FF0010BFC
:1028B00085F00045704A714B2046294602F0E8F841
:1028C00004460D466C4A6E4B2046294602F016FF20
:1028D0000ED2BBF1000F01D1012000E000208346A1
:1028E000654A674B2046294602F04AFF04460D46DA
:1028F000614A644B2046294602F000FF07D25E4A37
:102900005F4B2046294602F02FFF04460D465E4AE3
:102910005E4B2046294602F0DDFBCDE90E0102F0B8
:102920006DFD8246504602F098FD574A574BCDE95F
:102930000C0102F0E5FD22462B46CDE90E0102F026
:1029400013FF06460F46504A514B3046394602F0B7
:10295000D5FE09D20AF1010A4B4A4C4B30463946A2
:1029600002F00EFF06460F464A4800EBCA00D0E9C7
:102970000089CAF16400474901EBC00003C8CDE9F2
:10298000100132463B463046394602F0B9FD324628
:102990003B46CDE9040102F0B3FD32463B46CDE9AA
:1029A000060102F0ADFD42464B46CDE9080102F0BA
:1029B000A7FD0022384BCDE90A0102F08BFB32461D
:1029C0003B46CDE90E013046394602F099FD3246CC
:1029D0003B46CDE9020102F093FDCDE90401DDE9BA
:1029E000102302F08DFD00222C4BCDE9060102F0F0
:1029F00071FB32463B46CDE90A013046394602F0CA
:102A00007FFD42464B46CDE9000102F079FD0022F0
:102A10004FF08043CDE9020102F05CFBCDE90601F5
:102A200030463946DDE9102302F06AFD42464B4646
:102A3000CDE9020102F09AFACDE90401DDE90623AD
:102A400002F09EFECDE90801DDE90A2302F098FEBE
:102A5000CDE90C01DDE90E2302F088FA04460D46AB
:102A6000BBF1000F05D0204685F0004113B0BDE852
:102A7000F08F20462946F9E7182D4454FB211940D0
:102A8000FB210940FB21F93F1A271792BF15903F00
:102A9000BF15803FF07E000800003840000018405D
:102AA000490050EAC12018BF04204A0D18BF40F069
:102AB000010040F2FF72B2EB515F08BF40F002002C
:102AC000012808BF0520704730380A2801D20120AC
:102AD00070470020704700BF70470000F8B500F055
:102AE0008BFA00F075F82649486802F033FF064675
:102AF000244A254B02F002FE02D22248224903E07A
:102B00001F49486802F026FF044602F0FDF91C49FF
:102B1000486008461DA102682048FDF775FB0120AA
:102B200010231E4A002100900846FFF7FBFA1449C3
:102B3000486802F00FFF044622460B4618A11748CA
:102B4000FDF762FB01201023144A19460090002073
:102B5000FFF7E8FAFFF714FA0948016814A0FDF737
:102B600047FB0749486802F0F5FE044622460B463B
:102B700012A0FDF73DFB15A0FDF73AFBF8BD0000E4
:102B8000400000208FC2F5285CFF584068656172E4
:102B9000743A2533642F6D696E000000B40500207F
:102BA00053704F323A25322E326625250000000040
:102BB000D6B8C1EED0C4C2CA25336400D6B8C1EEBF
:102BC000D1AAD1F525302E32660000000D0A000092
:102BD0002DE9F04F91B00026B14600200F900E90E5
:102BE00000240FE0F64850F83410304602F0DEFEC4
:102BF0000646F44850F83410484602F0D7FE8146A5
:102C0000601C84B2B4F5007FECDB4FF088413046A5
:102C100002F03AFF06464FF08841484602F034FF82
:102C20008146002413E0E64951F83400314603F0B0
:102C3000DDF9E34941F83400E24951F834004946EE
:102C400003F0D4F9DF4941F83400601C84B2B4F5D4
:102C5000007FE8DB01244FE0D94850F834104FF0F2
:102C6000804003F06FF88046601ED54A52F830105D
:102C7000404602F09BFE0746D14A601C52F83010D5
:102C8000384602F093FE1090109802F063FE07465B
:102C90000022CD4B02F01EFACDE90A0102F034F910
:102CA000C74941F83400C74850F834104FF080400D
:102CB00003F048F88046601EC24A52F83010404681
:102CC00002F074FE0746BF4A601C52F830103846C6
:102CD00002F06CFE1090109802F03CFE0022BA4BFD
:102CE000CDE90A0102F0F6F9074602F00DF9B549FF
:102CF00041F83400601C84B2B4F5FF7FACDD0024E1
:102D000093E0AF4B621C53F832101A4652F834006D
:102D100002F04CFEAA4A0890A01C52F83010089805
:102D200002F044FE8046A64AE01C52F830104046AD
:102D300002F03CFE0746A24A201D52F830103846E9
:102D400002F034FE9E4A0990601D52F83010099836
:102D500002F02CFE9A4A0A90A01D52F830100A98F0
:102D600002F024FE964A0B90E01D52F830100B98AA
:102D700002F01CFE1090109802F0ECFD07460022B5
:102D8000924B02F0A7F9CDE90A0102F0BDF88C4997
:102D900041F834008B4B621C53F832101A4652F83B
:102DA000340002F003FE874A0890A01C52F830104D
:102DB000089802F0FBFD834A0990E01C52F830109D
:102DC000099802F0F3FD7F4A0A90201D52F8301056
:102DD0000A9802F0EBFD7B4A0B90601D52F8301010
:102DE0000B9802F0E3FD8046764AA01D52F83010A1
:102DF000404602F0DBFD0746724AE01D52F83010F3
:102E0000384602F0D3FD1090109802F0A3FD002286
:102E10006E4BCDE90A0102F05DF9074602F074F845
:102E2000684941F83400601C84B2B4F5FC7FFFF6B9
:102E300068AF0020664908806148FEF7F5FB6148ED
:102E4000FEF7F2FB002439E05D4A02EBC402516850
:102E50005B4A02EBC402506802F074FF8046584A95
:102E600052F8341052F8340002F06CFF41460B90D7
:102E700002F09CFD074601F032FF514941F8340051
:102E8000504A02EBC40251684E4A02EBC402506839
:102E900002F058FF80464B4A52F8341052F8340082
:102EA00002F050FF41460B9002F080FD074601F012
:102EB00016FF434941F83400601C84B2B4F5007F2A
:102EC000C2DB01240FE03E4850F834100F9802F0A6
:102ED0006DFD0F903B4850F834100E9802F066FDDF
:102EE0000E90601C84B2B4F5007FECDB1E213448E8
:102EF00000F02EF90D901E21324800F029F90C90B7
:102F00000D9802F0AAFA0022324BCDE9060102F038
:102F1000F7FA074600224FF0814302F0DBF8002267
:102F20002D4BCDE9080102F0EBFACDE90A0101F0E1
:102F3000EBFF8246504602F069FE28490860494688
:102F40000F9802F0FFFE074631460E9802F0FAFE97
:102F50008046394602F098FD8346584602F0FAFC56
:102F600007461F4A1F4B02F0CBFACDE9060158462F
:102F700002F0F0FCCDE90201584602F0EBFC1A4ADF
:102F80001A4BCDE9000102F0BBFA0746DDE9022346
:102F900002F0B6FACDE90401DDE9062301F0E6FF0F
:102FA000134A144BCDE9080101F0E0FFCDE90A0115
:102FB00001F0AAFF054609494D6011B0BDE8F08F48
:102FC000C8050020481600200000104000002040E6
:102FD000340000200000594000004E404000002016
:102FE000B4C876BE9F5A3E4048E17A14AE8746C0C8
:102FF000AE47E17A14B6574010B500201D4908804D
:1030000031E029E001F0A0FC1A480088B0F5007F0B
:1030100022DA1948008802F04DFE1849154A128834
:1030200041F832000020134A128801EBC2014860C7
:103030001348008802F03EFE12490E4A128841F8F9
:10304000320000200B4A128801EBC2014860094897
:103050000088401C074908804FF480710A48FEF739
:1030600034FC0028CED003480088B0F5007FC8DBD0
:1030700010BD0000340000204A000020C8050020D8
:103080004C00002048160020000C014010B56FF0E5
:103090000400FFF7AFF90A4800680A49B0FBF1F0F5
:1030A000094908700846007800EB4001C1EBC010E8
:1030B0004FF6FF7101EAC0000449088010BD00000E
:1030C0000000002000127A001400002016000020EA
:1030D0000146114A12884A434FF0E0235A61002208
:1030E0009A611A46126942F001021A6100BF4FF05C
:1030F000E022106900F001021AB100F48032002AC7
:10310000F5D04FF0E022126922F001024FF0E023E7
:103110001A6100229A6170471600002001B581B043
:1031200000200090694601AA507808701078487015
:10313000BDF800000CBD0146080601F47F4240EADC
:10314000022001F47F0240EA122040EA1160704739
:103150002DE9F04105460E460424274655F83480F3
:1031600000BF09E055F83410404602F0B7FD02D226
:1031700055F834802746641CB442F3DB3846BDE87A
:10318000F081000000BF054A128802F04002002AC8
:10319000F9D0C2B2014B1B1D1A80704700380140A4
:1031A0002DE9F04104460D460026002704B135B94B
:1031B00017A0FDF71DF84FF0FF30BDE8F08100F0DB
:1031C000E1F807462868216888420AD01A48006852
:1031D000381A41F27071884203D318A0FDF708F83D
:1031E00001266868616888420AD013480068381A66
:1031F00041F27071884203D315A0FCF7F9FF012654
:10320000012E03D100F0BEF80B4908603046D4E728
:1032100067697A436865636B5265706F72742045A5
:1032200072726F72202C20496C6C6567616C205043
:103230006172616D0A0000005C00002076616C75AF
:10324000656865617274204368616E6765640A0031
:1032500076616C756553704F32204368616E6765A7
:10326000640A000070B504460D4604B12DB90AA0E9
:10327000FCF7BEFF4FF0FF3070BD22680021012037
:1032800001F098F8287062680021012001F092F89E
:1032900068700020F0E7000067697A44617461504B
:1032A0006F696E7473325265706F727444617461C9
:1032B000204572726F72202C20496C6C6567616CBE
:1032C00020506172616D0A0070B5044600F05AF832
:1032D00005461D492046FFF763FF012813D11BA0B7
:1032E000FCF786FF18490A392046FFF7BBFF28B9CB
:1032F000022215490A39042000F0ECFF1248216827
:103300000160616841601748B5FBF0F100FB1150A6
:10331000C8B915480068A84215D014A0FCF768FF8A
:1033200009490A392046FFF79DFF28B902220649BC
:103330000A39042000F0CEFF03482168016061686B
:1033400041600948056070BD712700206368616EA7
:103350006765642C207265706F727420646174619B
:103360000A000000C027090060000020496E666F57
:103370003A2036303053207265706F727420646169
:1033800074610A0001480068704700005000002086
:1033900010B5174890F83A00012827D1144890F842
:1033A000390002281DDAFFF7EDFF1149D1F853105B
:1033B000401AC8281AD9FFF7E5FF04460C4890F8D0
:1033C0003930D0F8532021460AA0FCF711FF00F055
:1033D0009FFE074890F83900401C054981F83900E4
:1033E00004E01E2102483930FDF7C5F810BD000089
:1033F000C82600205761726E696E673A67697A5015
:10340000726F746F636F6C526573656E6444617440
:10341000612025642025642025640A003EB5044609
:10342000002524B913A0FCF7E3FE681E3EBD20680A
:103430000090606801909DF80400401CC0B28DF8B7
:1034400004000520FFF76AFEADF802000921684676
:1034500000F09CFE8DF808000921684601F056FC3A
:103460000546002D03DA29460DA0FCF7C1FE2846CB
:10347000DCE700004552523A2067697A50726F7457
:103480006F636F6C436F6D6D6F6E41636B20646132
:10349000746120697320656D707479200A000000E2
:1034A0004552523A207561727420777269746520B2
:1034B0006572726F72202564200A0000FEB5044612
:1034C0000E46002524B914A0FCF792FE681EFEBD2E
:1034D000684600F0D7F912208DF8040060798DF865
:1034E00005000620FFF71AFEADF802008DF808600F
:1034F0000A21684600F04AFE8DF809000A21684654
:1035000001F004FC0546002D03DA29460DA0FCF766
:103510006FFE2846DBE7000067697A50726F746FB0
:10352000636F6C4572726F72436D64204572726F87
:1035300072202C20496C6C6567616C20506172614F
:103540006D0A00004552523A2075617274207772FC
:10355000697465206572726F72202564200A00000C
:1035600030B59DB0044600252CB92BA0FCF740FED9
:10357000681E1DB030BD684600F084F902208DF849
:10358000040060798DF805002FA103C9CDE902017F
:1035900030A103C9CDE9040131A103C9CDE9080176
:1035A00032A103C9CDE90601202233A10AA8FCF704
:1035B000B0FF202239A10DF15200FCF765FF002079
:1035C000CDF84A00CDF84E009DF851008DF851001D
:1035D0009DF8510040F002018DF851100020FFF7D6
:1035E0009DFDADF848006F20FFF798FDADF8020093
:1035F0007321684600F0CAFD8DF872007321684699
:1036000001F084FB0546002D03DA29462CA0FCF7C7
:10361000EFFD2846ADE7000067697A50726F746F5E
:10362000636F6C476574446576696365496E666F60
:10363000204572726F72202C20496C6C6567616C3A
:1036400020506172616D0A003030303030303034DB
:1036500000000000303030303030303200000000E8
:103660003033303330303030000000003033303110
:10367000303130300000000031396363323663345A
:103680006238623934393662383134633431353630
:103690003030616663633963000000003261326478
:1036A000623632333332626234376538623566638C
:1036B00031303534613832653732636400000000E0
:1036C0004552523A20756172742077726974652090
:1036D0006572726F72202564200A00002DE9FE4F8A
:1036E00080460E4617464FF0000B002002908146A0
:1036F0008246002534460090B8F1000F01D006B193
:1037000037B950A0FCF774FD4FF0FF30BDE8FE8FD5
:10371000404601F009FA00F0FF0ABAF1000F02D1A9
:103720004FF0FF30F2E74FF000095DE0012201A900
:10373000404601F036FA8346BBF1000F52D04D48A7
:103740000078FF281FD19DF80400FF281BD14A48AC
:10375000007848B9FF202070607002204749088037
:1037600001204549087034E044480088042830DDD1
:1037700042480088A8422CD0FF20207060700220B0
:103780003E49088025E03B480078FF2803D19DF89A
:10379000040055281DD038480078012819D19DF81B
:1037A000040036490988605434480088401C334975
:1037B00008800846008804280BDD0094009C60887F
:1037C000FFF7ACFC001D85B22C480088A84200D150
:1037D0000CE09DF804002749087029480078401C37
:1037E0002749087009F10109D1459FDB00BF234833
:1037F0000088042823DD21480088A8421FD11F48E3
:103800000188204600F0C2FC02901C480088401E3F
:10381000215C029881420FD12A4621463046FCF7AE
:1038200033FE3D8000201449087014490880144973
:1038300008701049087069E76FF0010066E7012021
:1038400064E7000067697A50726F746F636F6C474A
:1038500065744F6E655061636B6574204572726F5D
:1038600072202C20496C6C6567616C20506172611C
:103870006D0A00006800002064000020660000203F
:103880006900002010B504462CB907A0FCF7B0FC75
:103890004FF0FF3010BD002020606060FF202070DE
:1038A00060700020F6E700004552523A2067697ABE
:1038B00050726F746F636F6C48656164496E6974B0
:1038C000206865616420697320656D707479200AD1
:1038D000000000002DE9F04F8DB006468B461746DC
:1038E000994600200C9082468046002501ACBBF131
:1038F000000F06D131A0FCF77BFC681E0DB0BDE8BF
:10390000F08FB9F1010F06D196F8088008F1060092
:10391000384485B201E0781D85B22B4642463946CF
:103920002CA0FCF765FCFF2004F8010B04F8010B48
:10393000281204F8010B04F8015B3079401C04F8EC
:10394000010B707904F8010B002004F8010B04F856
:10395000019B4FF0080AB9F1010F0DD104F8018B5A
:103960000AF1010A01A901EB0A00424606F1090128
:10397000FCF78AFDC244444437B101A901EB0A00B7
:103980003A465946FCF780FD291D01A800F0FEFBD0
:103990000146E81C01AA1154291D01A801F0B6F93D
:1039A0000C900C98002806DA14A00C99FCF720FC67
:1039B0006FF00100A2E70020A0E700005B45525233
:1039C0005D202064617461204973204E756C6C2009
:1039D0000A0000006C656E203D202564202C2073B9
:1039E0004469644C656E203D202564202C6461741C
:1039F000615F6C656E203D2025640A0075617274FC
:103A0000207772697465206572726F722025642058
:103A10000A0000002DE9F04780460C4617461D4677
:103A2000089E94F800900CB105B136B92AA0FCF7B5
:103A3000DFFB4FF0FF30BDE8F087B8F1000F48D151
:103A400012213148FCF797FDB9F1010F06D0B9F109
:103A5000020F07D0B9F1050F39D118E00025002079
:103A6000306035E02849483101F10A00FFF7FAFBE0
:103A700048B925485738B0F89F00A5F80100032041
:103A80002870306002E04FF0FF30D4E720E07A1E6B
:103A9000611C1D484038FCF7F7FC781E1A4957395D
:103AA000C1F82D0010211848573890F85720583089
:103AB0008154583890F85700401C1349573981F801
:103AC00057000320087000250020306000E000BF90
:103AD00000BF0020AFE7000067697A50726F746F13
:103AE000636F6C49737375656450726F636573734C
:103AF000204572726F72202C20496C6C6567616C76
:103B000020506172616D0A001F27002070B50446C5
:103B100025462CB90FA0FCF76BFB4FF0FF3070BDB2
:103B2000412205F108010F48FCF7AEFC0F210D48BA
:103B3000BE3890F88D208E3081548E3890F88D00EC
:103B4000401C0849BE3981F88D000520087000200E
:103B5000E5E700004E545020697320656D7074795C
:103B6000200A00008627002010B504462CB9CAA000
:103B7000FCF73EFB4FF0FF3010BD2089FFF7CEFA77
:103B80002081D1480078C0F38000217AC1F3800100
:103B9000884256D0207AC0F38000002829D0207AAD
:103BA00000F0010078B10021C84890F869206A301F
:103BB00081546A3890F86900401CC44981F8690052
:103BC000C3A0FCF715FB207AC0F34000002838D0D2
:103BD0000121BE4890F869206A3081546A3890F813
:103BE0006900401CB94981F86900C1A0FCF700FBDD
:103BF00027E0207A00F0010078B10021B34890F866
:103C000069206A3081546A3890F86900401CAF49D5
:103C100081F86900AEA0FCF7EBFA207AC0F340000F
:103C200078B10221A94890F869206A3081546A3835
:103C300090F86900401CA54981F86900B3A0FCF721
:103C4000D7FAA1480078C0F3C000217AC1F3C001BF
:103C500088422CD0207AC1089B48007861F3C300C9
:103C600099490870207AC0F3C00080B103219748B9
:103C700090F869206A3081546A3890F86900401CD5
:103C8000924981F86900A8A0FCF7B2FA0FE004217C
:103C90008E4890F869206A3081546A3890F869003B
:103CA000401C8A4981F86900A7A0FCF7A1FA864860
:103CB0000078C0F30010217AC1F3001188422CD0A3
:103CC000207A01098048007861F304107E49087069
:103CD000207AC0F3001080B105217C4890F869205B
:103CE0006A3081546A3890F86900401C774981F83D
:103CF00069009DA0FCF77CFA0FE00621734890F85C
:103D000069206A3081546A3890F86900401C6F4914
:103D100081F869009CA0FCF76BFA6B480078C0F34F
:103D20004010217AC1F3401188422CD0207A4109F9
:103D30006548007861F3451063490870207AC0F344
:103D4000401080B10721614890F869206A308154A1
:103D50006A3890F86900401C5C4981F8690093A0BA
:103D6000FCF746FA0FE00821584890F869206A30BD
:103D700081546A3890F86900401C544981F8690000
:103D800091A0FCF735FA50484078C0F3C001607A42
:103D9000C0F3C00081422CD0607AC1084A48407804
:103DA00061F3C30048494870607AC0F3C00080B135
:103DB0000B21464890F869206A3081546A3890F89F
:103DC0006900401C414981F8690087A0FCF710FA9E
:103DD0000FE00C213D4890F869206A3081546A3820
:103DE00090F86900401C394981F8690085A0FCF70A
:103DF000FFF935484078C0F30011607AC0F3001035
:103E000081422CD0607A01092F48407861F3041078
:103E10002D494870607AC0F3001080B109212B4809
:103E200090F869206A3081546A3890F86900401C23
:103E3000264981F869007BA0FCF7DAF90FE00A2136
:103E4000224890F869206A3081546A3890F86900F5
:103E5000401C1E4981F8690079A0FCF7C9F90D21C1
:103E60001A4890F869206A3081546A3890F86900DD
:103E7000401C164981F86900607A00F0070081F85B
:103E8000B100084690F8B11074A0FCF7B1F9022017
:103E90000E49087000206FE667697A50726F746F80
:103EA000636F6C4D6F64756C6553746174757320CA
:103EB0004572726F72202C20496C6C6567616C20B2
:103EC000506172616D0A00006A000020C82600205F
:103ED0004F6E426F617264696E673A20536F667409
:103EE0004150206F7220576562206D6F64650A0033
:103EF0004F6E426F617264696E673A204169724C1D
:103F0000696E6B206D6F64650A0000004F6E426F32
:103F1000617264696E673A2053746174696F6E20D0
:103F20006D6F64650A00000057694669207374610B
:103F30007475733A20696E2062696E64696E6720D9
:103F40006D6F64650A0000005769466920737461EB
:103F50007475733A206F75742062696E64696E6758
:103F6000206D6F64650A00005769466920737461AB
:103F70007475733A20636F6E6E6563746564207246
:103F80006F757465720A0000576946692073746121
:103F90007475733A20646973636F6E6E65637465DC
:103FA0006420726F757465720A0000005769466973
:103FB000207374617475733A20636F6E6E656374F9
:103FC0006564206D326D0A0057694669207374611B
:103FD0007475733A20646973636F6E6E656374659C
:103FE00064206D326D0A0000576946692073746160
:103FF0007475733A2061707020636F6E6E656374C0
:104000000A00000057694669207374617475733A39
:10401000206E6F2061707020636F6E6E6563740A2E
:104020000000000057694669207374617475733A23
:1040300020696E2074657374206D6F64650A0000DA
:1040400057694669207374617475733A206F75748B
:104050002074657374206D6F64650A005253534970
:10406000206973202564200A0000000070B5044612
:1040700025462CB919A0FCF7BBF84FF0FF3070BDF6
:104080001B48A9680160E9684160298A0181A97C0F
:104090008172A0F1B201B1F8B200FFF73FF8144904
:1040A000B239A1F8B200D1F8BA00FFF744F81049CC
:1040B000B239C1F8BA000E210D48B23890F87B2011
:1040C0007C3081547C3890F87B00401C0849B23920
:1040D00081F87B00042008700020D0E74552523A56
:1040E000204E545020697320656D707479200A0049
:1040F0007A27002010B5FFF745F9044600BFFFF707
:1041000041F9001BB0F5167FF9D900F083FC10BD12
:1041100010B500240E4890F83A0000B910BD0DA06B
:10412000FCF766F80A48B0F851103B3000F0EEFD9D
:1041300004460748B0F85100A04202D00DA0FCF799
:1041400057F8FFF71FF90249C1F8530000BFE5E730
:10415000C82600205761726E696E673A2074696DD7
:10416000656F75742C20726573656E64206461746C
:1041700061200A004552523A20726573656E6420D0
:1041800064617461206572726F720A0010B5024634
:104190000024002302B109B9002010BD022303E06E
:1041A000D05C2044C4B25B1C481E9842F8D820461C
:1041B000F3E7000070B504460D462CB90FA0FCF7DC
:1041C00017F84FF0FF3070BD1E211248FCF7D3F9ED
:1041D0002A4621460F48801CFCF756F90D4839380D
:1041E000A0F85150012180F83A10FFF7CBF80949A7
:1041F0003939C1F853000020E5E700004552523A32
:10420000206461746120697320656D707479200A7F
:10421000000000000127002070B50446094D2CB9AC
:1042200009A0FBF7E5FF4FF0FF3070BD2879401C77
:104230002179884204D11E210248801EFCF79BF997
:104240000020F2E7032700204552523A20646174AF
:104250006120697320656D707479200A0000000088
:1042600070B504460D46002624B90AA0FBF7C0FF2E
:10427000701E70BD2A4621460E4800F0E3FC06463B
:10428000AE4205D00CA0FBF7B3FF4FF0FF30F0E7D4
:104290003046EEE74552523A2067697A50757444C9
:1042A0006174612062756620697320656D70747930
:1042B000200A0000C72700204552523A2046616973
:1042C0006C656420746F2072625772697465200A8D
:1042D00000000000FEB505460E461746002426B92C
:1042E0001EA0FBF785FF601EFEBD6846FFF7CAFAF9
:1042F00005208DF80400234890F83110D0F83100E3
:10430000401C204AC2F83100C8B28DF805008DF873
:1043100008500820FEF702FFADF802003A46314689
:104320000DF10900FCF7B0F80C216846FFF72EFFED
:104330008DF80B000C21684600F0E8FC0446002CC8
:1043400006DA214610A0FBF753FF6FF00100CBE720
:104350000C216846FFF72EFF2046C5E767697A52B1
:1043600065706F727444617461204572726F72205F
:104370002C20496C6C6567616C20506172616D0A1C
:1043800000000000C82600204552523A2075617294
:1043900074207772697465206572726F722025646B
:1043A000200A000002480068401C0149086070476C
:1043B0005000002010B503460020541AB4FBF3F05F
:1043C00010BD00002DE9FF5F06460D46934600270D
:1043D000A846A9462C46AA4606B125B94FF0FF309B
:1043E00004B0BDE8F09F00273EE0701CC05D1128BE
:1043F00036D2DFE800F0090A0B35350C0D0E0F350B
:10440000353535101A2916002BE02AE029E028E07E
:1044100027E026E025E099F8001016A0FBF7E8FE5B
:104420001FE017A0FBF7E4FE1BE0A1796279237976
:10443000A068CDE90032CDE90210E378A2782188A6
:1044400014A0FBF7D5FE0CE01DA0FBF7D1FE21A0C8
:10445000FBF7CEFE9AF8001022A0FBF7C9FE00E0A1
:1044600000BF00BF781CC7B23078B842BDDC002066
:10447000B6E70000525353492025640A00000000AB
:104480005452414E53504152454E545F4441544161
:10449000200A0000574946495F4E5450203A205B9D
:1044A00025642D25642D256420253032643A25307D
:1044B00032643A253032645D5B25645D200A000079
:1044C0004D4F44554C4520494E464F202E2E2E0A26
:1044D00000000000574946204D4F44554C45202EC2
:1044E0002E2E0A006D6F64756C6554797065203AE4
:1044F000205B25645D200A002DE9F0418EB0054661
:10450000002600200290019000248046002735B943
:1045100081A0FBF76DFE601E0EB0BDE8F081FEF7D6
:1045200037FF02AA86498748FFF7D8F80646002ECB
:1045300071D185A0FBF75CFE814C20790F284FD00C
:104540000ADC0E2873D2DFE800F07216721A72725B
:10455000433872724472453C182852D006DC112848
:1045600047D0142846D0162861D134E0222854D0F0
:104570002A285CD130E02046FEF7F2FF5FE0E279C6
:10458000A17976A0FBF734FE01A8009007F109009D
:10459000BDF808301A1A6A480830C11903AB404602
:1045A000FFF738FA40B9E37903A92046019AFFF7EB
:1045B00091F96EA0FBF71CFE41E02046FEF72EFFAE
:1045C0003DE02046FEF72AFF2046FFF7CDFA36E011
:1045D00000BF00BF00BF00BF2046FFF71DFE2EE05A
:1045E0002046FEF71BFF64A0FBF702FEFFF782FDEB
:1045F00025E024E02046FFF70FFE64A0FBF7F8FD5E
:104600001DE02046FFF708FE2046FFF72FFD67A0BC
:10461000FBF7EEFD13E013E009E02046FFF7FCFD99
:104620002046FFF773FA67A0FBF7E2FD07E00221DF
:104630002046FEF743FF6AA0FBF7DAFD00BF0DE05E
:1046400016F1020F0AD13E4C01212046FEF736FF3B
:1046500069A0FBF7CDFD6FF001005DE73848401E13
:104660000078062850D2DFE800F04F0313232F3FD5
:1046700000203349491E08700822A131A1F14A00E7
:10468000FFF7A0FE12212E485630FBF774FF3CE0E6
:1046900000202B49491E08700122B131A1F14800C8
:1046A000FFF790FE122126486830FBF764FF2CE0EC
:1046B00000202349491E08700846D0F82D201731E4
:1046C0005730FFF77FFE20E000201D49491E08708B
:1046D0000C22B231A1F13700FFF774FE1221184805
:1046E0007A30FBF748FF10E000201549491E08709A
:1046F0004122BE31A1F13100FFF764FE4121104893
:104700008C30FBF738FF00E000BF00BF2846FEF703
:10471000DBFD002000E7000047697A776974734881
:10472000616E646C65204572726F72202C20496C3A
:104730006C6567616C20506172616D0A0000000059
:10474000C9260020C7270020476574204F6E6520CA
:104750005061636B6574210A00000000666C61673C
:10476000202578202578200A0000000041636B4452
:10477000617461203A200A007265706F72743A4D5C
:104780004355207265626F6F74210A0041636B208C
:1047900050524F44554354494F4E5F4D4F4445206E
:1047A00073756363657373200A00000041636B20B7
:1047B0004745545F55545420737563636573732084
:1047C0000A00000041636B204745545F4D6F6475DC
:1047D0006C652073756363657373200A00000000C5
:1047E0004552523A20636D6420636F6465206572A0
:1047F000726F72210A0000004552523A20636865C8
:10480000636B2073756D206572726F72210A0000F0
:1048100010B52C20094908600948C860084600F016
:10482000B5F918B907A0FBF7E3FC02E00AA0FBF713
:10483000DFFCFF210D48FBF79EFE10BDC7270020BF
:10484000D7270020726243726561746520537563D7
:1048500063657373200A0000726243726561746558
:10486000204661696C64200A00000000C826002010
:1048700008B54FF4A060FDF79FFAFEF707FC4FF470
:10488000165000F06FFA27A0FBF7B2FCFDF7F2FA22
:104890000120102325A2202100900846FDF742FCAC
:1048A000FDF76EFB4FF4FA70FEF712FCFDF78EFA7F
:1048B000FDF766FBFDF792F8FDF720FAFDF736FAF3
:1048C000FDF7E2F94FF4165000F09CFA40F2E731A0
:1048D0004720FDF7E5FD00F0F9FAFFF799FF4FF4E7
:1048E000FA70FEF7F5FB002410E006E011A0FBF7DC
:1048F0007FFC1348006800F027F84FF480711048DF
:104900000838FCF7E2FF0028F0D0641C802CECDBB8
:1049100006E0FEF7E3F800F0C9FA0A48FFF7ECFDFD
:10492000F7E70000C4E3BAC30D0A00004F4C45444A
:10493000204F4B007265616420494E540D0A0000FF
:10494000080C0140540000201CB500202F490880AD
:104950002F4908800021AE20FDF79EF80121AE20EE
:10496000FDF79AF807208DF8000006236A46072114
:10497000AE20FDF74FF89DF800404FF6FF7000EABB
:104980008434224800882044204908809DF8014052
:104990004FF6FF7000EA841408460088204408801F
:1049A0009DF80240A41008460088204408809DF825
:1049B00003404FF6FF7000EA843415480088204415
:1049C000134908809DF804404FF6FF7000EA8414F4
:1049D00008460088204408809DF80540A410084639
:1049E0000088204408800846008842F210718842FE
:1049F00002DC0020064908800448008842F2107159
:104A0000884202DC0020014908801CBD4A000020C9
:104A10004C000020012080F3138800BF00BF07482E
:104A2000006800F4E06006490843001D034908607F
:104A3000BFF34F8F00BF00BFFEE700000CED00E0AA
:104A40000000FA052DE9FC4104460D46CDE900457C
:104A5000019800F0004080B12046294600F0CEFCCD
:104A6000804601F00FF907464FF07E5101F0BEFA83
:104A7000064600F06FFFBDE8FC812046294600F0A5
:104A8000BDFC074601F0FEF8064600F063FFF2E7C2
:104A90002DE9FC5F06460F4614461D4600221346CC
:104AA0002046294600F06EFC03D100200146BDE8F7
:104AB000FC9F22462B463046394600F00BFB8246CF
:104AC000FFF7C0FFCDE9000122462B46DDE90001DA
:104AD00000F016FD824632463B4600F045FE804619
:104AE0008946002213463046394600F0CDFC02D2FA
:104AF0004FF0010A01E04FF0000A00221346204661
:104B0000294600F0C1FC01D2012000E000208245CE
:104B100007D022462B464046494600F031FE8046EB
:104B2000894640464946C2E700B5024612B94FF0F1
:104B3000FF3000BD50689168884201D10020F8E73D
:104B400050689168884203D290685168401AF0E733
:104B5000104600F014F851689368C91A401AE8E743
:104B600030B5044614B94FF0FF3030BD204600F098
:104B700006F805462046FFF7D7FF281AF5E7014655
:104B800011B94FF0FF3070470868FCE7014611B9D2
:104B90004FF0FF307047C8684860C86888600020E0
:104BA000F8E72DE9F04104460F461646002514B9F2
:104BB000681EBDE8F08117B94FF0FF30F9E7606873
:104BC000A168884214D22046FFF7AEFFB04201D957
:104BD000304602E02046FFF7A7FF054661682A46F7
:104BE0003846FBF751FC6068284460602846E0E7DF
:104BF0002046FFF7C4FF6168E268891A401AB04294
:104C00000AD9354661682A463846FBF73DFC60689C
:104C1000284460602846CCE72046FFF7B0FF616873
:104C2000E268891A451A61682A463846FBF72CFC67
:104C3000E0686060721B79192046FFF7B2FF0544F7
:104C40002846B6E72DE9F04104460F4615460026F2
:104C500004B11FB94FF0FF30BDE8F0812046FFF7E7
:104C60007FFFA84202D86FF00100F5E76068A168F5
:104C700088422AD82046FFF782FFA168E268891A95
:104C8000461AB54213D8A0682A463946FBF7FCFB02
:104C9000A0682844A0602046FFF771FFE16808443F
:104CA000A168884201D1E068A0602846D4E7A068E6
:104CB00032463946FBF7E8FBE068A060AA1BB91949
:104CC0002046FFF7BFFF3044C6E7A0682A463946B2
:104CD000FBF7DAFBA0682844A0602846BCE770B563
:104CE000054601F0FBF8044620F00040C0F1FF400B
:104CF000C00F08D025F00040C0F1FF40C00F04BF36
:104D00000120FBF763FC204670BD000070B505462E
:104D10000E4600240DB9601E70BD00241BE0295D05
:104D20000F48FDF79AFD00BF80210D48FDF7C8FC34
:104D30000028F9D0022C0DD3285DFF280AD1552177
:104D40000748FDF78AFD00BF80210548FDF7B8FC44
:104D50000028F9D0641CB442E1D33046DCE70000FF
:104D60000048004010B586B00446012144F204001A
:104D7000FDF72AFA4FF40070ADF8140003208DF807
:104D8000160018208DF8170005A91C48FCF712FD25
:104D90004FF48060ADF8140004208DF8170005A9C9
:104DA0001648FCF707FD25208DF8000003208DF83C
:104DB00001008DF8020001208DF803006846FCF721
:104DC000C3FF01940020ADF80800ADF80A00ADF86B
:104DD0000C00ADF810000C20ADF80E0001A9084839
:104DE000FDF7CAFC012240F225510548FDF79FFC62
:104DF00001210348FDF758FC06B010BD0008014032
:104E00000038014010B586B0044601210820FDF7A6
:104E1000DBF901218804FDF7C7F94FF48060ADF894
:104E2000140003208DF8160018208DF8170005A92E
:104E30001C48FCF7BFFC4FF40060ADF814000420E0
:104E40008DF8170005A91748FCF7B4FC27208DF84A
:104E5000000003208DF801008DF8020001208DF87C
:104E600003006846FCF770FF01940020ADF80800CD
:104E7000ADF80A00ADF80C00ADF810000C20ADF84C
:104E80000E0001A90848FDF777FC012240F22551E8
:104E90000548FDF74CFC01210348FDF705FC06B071
:104EA00010BD0000000C01400048004010B505484E
:104EB0000068054908600349486800F0C3FE0249DC
:104EC000486010BD4000002054000020024800212E
:104ED00001604160704700005400002010B50029B7
:104EE0000AD00878002807D005487844FBF76AFF05
:104EF000002801D0002010BD0248784410BD0000F9
:104F00001E3400001634000021F00042A2F160526D
:104F1000B2F5801F01F0004328BFD2F17F6C0BD99E
:104F20005FEA001C43EAC20242EB507018BF7047B0
:104F300028BF20F001007047B2F5801FBCBF1846A3
:104F400070474FEA410C1CF5001F02D2084600F0E2
:104F5000C0BF70B500F07EFB00000089FFF7F6BF10
:104F60004FF00040A0F580007047000010B591EAB6
:104F7000030F48BF83F0004300F10A84841A71EBE9
:104F8000030C05D2121943EB0C03001B61EB0C015F
:104F9000DFF824E14FEA1154A4EB135C1EEA430F3F
:104FA00018BF9EEA445F73D023EA0E03DCF1200EA3
:104FB00021EA045143F4801332D322FA0CFE10EBA1
:104FC0000E0023FA0CFE41EB0E01CCF1200E03FA89
:104FD0000EFE10EB0E0051F10001B1F5801FCCF177
:104FE000200E32D201EB045112FA0EF2BDE810404D
:104FF00058BF7047401C38BF5FEA420218BF704775
:10500000002814BF20F0010041F100014FEA4103E4
:1050100013F5001F38BF7047A1F1C04100F068BB15
:10502000012A43EB0302ACF1200CDCF11F0E32BF6E
:105030004FF0000E23FA0CF310EB030041EB045188
:10504000B4EB115FD0D0A1EB045101F580114908F8
:105050005FEA300001EB04510ED350F1000038BF7D
:1050600012FA0EFE08D1BDE81040C9E7401C38BF57
:105070005FEA4202CAD1C3E7BDE810404FEA4103EC
:1050800013F5001F38BF7047A1F1C04100F030BBDD
:105090009EEA445F08D011EA5E0FBDE8104004BFED
:1050A00001F0004100207047BDE8104070B500F0ED
:1050B000D1FA00BF64FBBE3E0000E0FF491058BFBC
:1050C000C1F140415B1058BFC3F140438B42EFF345
:1050D000008070472DE9C04130B4DFF8A0C23CEA3F
:1050E000111418BF3CEA131400F0EC8081EA0305A8
:1050F0001CEA111444EAD57418BF1CEA131500F019
:10510000C780A4EB05044FF0004545EAC12145EAFC
:10511000C32341EA505143EA525304F17F74994248
:1051200004F500344FEAC0204FEAC22208BF904283
:1051300000F09C804FEA13650FF24016765D4FEA4F
:10514000134506FB05F7C7F1807706FB07F74FEA23
:10515000D737A7FB03687642C8F58038A7FB06CE91
:1051600038BFA8F1010807FB08E64FF0000EA6FBC8
:10517000028CE6FB03CEDCF1000CCEF1004E38BF12
:10518000AEF1010EA6FB0C584FF000074FF00005E2
:10519000E6FB0E87A1FB08C6A0FB07CE16EB0E06AA
:1051A00045F10005E1FB076515F1E04E7EBFA4F572
:1051B00080345FEA46066D4116F1800745F100052F
:1051C0004FEA17274FEA066647EA0567A6F1DE466B
:1051D000B6F1805F4FEA15251FD9384624F0010C3F
:1051E00005EBC471BCF1FE6F01EB0C1102D8F0BCF1
:1051F000BDE8008124425CBF01F5801E9EEAC47FA9
:1052000002D4F0BCBDE80081244238D4F0BCA1F146
:10521000C041BDE8004100F06BBA4FEAD22242EA39
:1052200043524FEAD323A7FB02864FEAD02040EA3D
:10523000415007FB03661EEA0E0F4FEAD12105FB22
:10524000026658BFA6EB0056B6EB00564FEA520E68
:105250004EEAC37E18EB0E0E56EB530EBDD518EB7F
:1052600002085E417F1C55F10005B6E74FF480153A
:105270004FF000074FF000064FF00008ADE7F0BC1C
:105280004FF0000001F1C04101F00041BDE8008194
:1052900011EA0C1F0CEA131500D00CE013EA0C1FE6
:1052A00000F025804FF00000F0BC81EA030101F01E
:1052B0000041BDE80081F0BCBDE8004181EA030186
:1052C00000F016BAF0BCBDE8004170B500F0C2F9BC
:1052D000097EFC3E00F007B881EA03014FF00000B0
:1052E00001F00041704781EA030100F001BAF0BC0F
:1052F000BDE800414FF0000021497047FFFDFBF978
:10530000F7F5F4F2F0EEEDEBE9E8E6E4E3E1E0DEF8
:10531000DDDBDAD8D7D5D4D3D1D0CFCDCCCBCAC86A
:10532000C7C6C5C4C2C1C0BFBEBDBCBBBAB9B8B791
:10533000B6B5B4B3B2B1B0AFAEADACABAAA9A8A884
:10534000A7A6A5A4A3A3A2A1A09F9F9E9D9C9C9B52
:105350009A999998979796959594939392919190FD
:105360008F8F8E8E8D8C8C8B8B8A8989888887878E
:105370008685858484838382828181800000FF0703
:105380000000F87F51EA030C17D41CF5801F58BFAA
:10539000BCF5801F00F10680994218BF704708BF16
:1053A0009042704707D711F5801F58BF13F5801F33
:1053B00019D499427047894270471CF5801F08D55F
:1053C000BCF5801FF7D58B4218BF704708BF8242DB
:1053D00070474FF4001C1CEB410F38BF1CEB430F10
:1053E00001D28B42704770B500F034F99224490025
:1053F0004FF000514FF08053FFF760BE4FEA41037A
:105400004FEA5353A3F58063D3F11E03C8BFD3F112
:10541000210C0CDD4FF0004242EAC12242EA505218
:1054200032FA03FC8CEAE17CACEBE1707047102BA4
:10543000C4BF0020704703F5787CBCF1FF3F04D067
:105440006FF0004282EA2100704770B500F002F967
:105450004992248000207047F2E710F0004248BFD4
:105460004042B0FA80F310FA03F10AD0C3F11D03F1
:1054700003F580634FEA415002EB035202EBD12166
:1054800070474FF00000704751EA030C17D41CF529
:10549000801F58BFBCF5801F00F10680994218BFDD
:1054A000704708BF9042704707D711F5801F58BF5B
:1054B00013F5801F19D499427047894270471CF533
:1054C000801F08D5BCF5801FF7D58B4218BF7047E9
:1054D00008BF824270474FF4001C1CEB410F38BFDD
:1054E0001CEB430F01D28B42704770B500F0B2F84D
:1054F000922449004FF000514FF08053FFF7DEBD7A
:10550000DFF848C170B51CEA111E1EBF1CEA131556
:105510009EEA0C0F95EA0C0F00F06F8081EA0304FD
:1055200023EA4C134EEAD47E21EA4C1141F4801157
:1055300043F48013AE44A1FB024CA0FB0365AEF123
:105540007F7E361955EB0C05A1FB034C4CF1000393
:10555000A0FB021C16EB0C06654153F10003094247
:1055600018BF46F0010613F4007F0BD14FEA033158
:105570004FEA0530340341EA155140EA16506FF006
:1055800003020AE04FEAC3214FEAC520F40241EAD0
:10559000555140EA56506FF0020202EB2E4201EBE9
:1055A000025585EACE710AD05FEA440C18BF24F098
:1055B000004450F1000041F1000120EAD47040F2B3
:1055C000FE7C624500D270BDA84214BF4FF08044FB
:1055D0004FF04044002E08BF0024BEF1806FA8BFEA
:1055E000A1F1C041BDE8704080F282804FF0000020
:1055F00001F1C04101F0004170479EEA0C0F0CEA36
:10560000131518BF95EA0C0F06D04FF0000081EA81
:10561000030E0EF0004170BD00F01CF88900013E41
:1056200000F007B800F009B84FEA430C5FEA5C5C91
:1056300008D081EA030100F05BB84FEA410C5FEA51
:105640005C5CF6D14FF00000014970470000FF0795
:105650000000F87F0EF1020E2EF0030E5EF8046BD0
:10566000364205D4012A43EB030515F5001F12D875
:10567000012841EB010C1CF5001F0CD80ED14FEA9C
:10568000D17C15F5001F0CEB4C0C0CF1020C08BF83
:105690004CEBD37C04E04FF0080C01E04FEAD37CE4
:1056A0000CEB4C0526FA05F606F00706B6F1040CDD
:1056B00006D20EEB860CBDE870404CF0010C604742
:1056C000DFE80CF0090B02024FF000414FF0000040
:1056D000A1F5002170BD19461046012851EB0104C7
:1056E00018BFD4F5001484BF002001F0004170BD44
:1056F0000808A0F500114FEA3101704753EA010C88
:1057000017D41CF5801F58BFBCF5801F00F1068020
:105710008B4218BF704708BF8242704707D713F506
:10572000801F58BF11F5801F19D48B4270479B42D0
:1057300070471CF5801F08D5BCF5801FF7D599422E
:1057400018BF704708BF904270474FF4001C1CEB15
:10575000430F38BF1CEB410F01D2994270470FB481
:105760000CBC03BCFFF7C1BE91EA030F10B581F07A
:1057700000413FF503AC83F0004300F009B800009E
:1057800010B591EA030F48BF83F000433FF5F6AB35
:10579000841A71EB030C07D212198CF0004C43EB06
:1057A0000C03001B61EB0C01DFF8A4E14FEA11547C
:1057B000A4EB135C1EEA430F18BF9EEA445F00F09F
:1057C000B08023EA6E03524221EA0451C3EB6E0318
:1057D00038BF5B1EDCF1200E25D322FA0CFE10EB45
:1057E0000E0043FA0CFE41EB0E01CCF1200E03FA41
:1057F0000EFE10EB0E0051F10001CCF1200E29D469
:1058000012FA0EF201EB0451BDE8104058BF704788
:10581000401C1CBFB2F1004F704700280CBF491C50
:1058200020F00100704712EB020E43EB030218BF99
:105830004FF0010E4EEA4202ACF1200CDCF11E0EDC
:1058400054D943FA0CFE10EB0E0051F1FF31CCF1AC
:105850001E0ED5D50EF1010E12FA0EFE404141EB9F
:10586000010101EB445C5FEA5C5C10D910EBDE7077
:1058700001EB045138BFBEF1004FBDE8104018BF26
:10588000704700280CBF491C20F00100704730D23F
:105890004FEAD42C11F5001124F400641BD0B1FAA6
:1058A00081F20B3AA41AA41ED2F12003914030FADF
:1058B00003F31943904001EBCC71002C01EB045130
:1058C000BDE81040A8BF704701F1C0414FF0000093
:1058D00001F000417047B0FA80F310FA03F100D1F3
:1058E00010BDE41A173C4805C90AE4E701EB04516E
:1058F00010BD491001EB0451BDE810404FEA3000E3
:1059000002E04FF0000170474A0008BF0042F8D0A3
:10591000B2F5001F28BF704701F000414FF00000B2
:1059200070479EEA445F07D011EA5E0FBDE8104061
:1059300004BF002100207047BDE8104070B5FFF79C
:1059400089FE00BF40DFF63E83F0004110467047FD
:105950000000E0FF43004FEAD30C4FEA3C0C434009
:105960001FBF40070CF1605113F0FE4F70471CF051
:10597000006F03D100200CF0004170470CF0004391
:1059800043EA507010B540EACC0000F05CFA00BF6A
:10599000000000924FEA0001FFF7AABE4FF000415D
:1059A0004FF00000A1F500217047000090EA010FC0
:1059B00048BF81F0004100F12083421A3CBF801AA9
:1059C00089184FEAD0524FF07F4C1CEA410FA2EBEE
:1059D000D15318BF9CEA026F00F03B804FF0004C9F
:1059E0004CEA00204CEA012121FA03FC10EB0C0CDC
:1059F0001ED202F1FF325FEA1C2040EBC25038BFDA
:105A000070471CF07F0F4FEA400C18BFBCF17F4F6E
:105A100038BF7047C3F12003994008BF20F0010050
:105A2000BCF17F4F38BF7047A0F1C04000F051BAC1
:105A30004FEA3C00000A40EBC25028BF1CF0FF0FA9
:105A40004FEA400CE6D018BFBCF17F4F38BF70471B
:105A5000EAE79CEA026F05D010EA5C0F08BF00F08D
:105A60000040704710B500F0EEF900BF64FBBE3E89
:105A7000401058BFC0F14040491058BFC1F14041EB
:105A80008142EFF3008070474FF47F0C1CEAD01284
:105A90001EBF1CEAD11392EA0C0F93EA0C0F00F020
:105AA000858090EA010F48BF42F4807240F4000CF8
:105AB00041F400002CF07F4120F07F4000B581428E
:105AC000A2EB03020FF2081CACEB504EC0F1000039
:105AD0009EF800E04FEA4E0E00FB0EFC38BF490076
